{
  "sourcePath": "/Users/jake/Dev/secret-ballot/contracts/TreasureHunt.sol",
  "source": "pragma solidity ^0.4.18;\n\ncontract SecretBallot {\n    // The address of the account that created this ballot.\n    address public treasureHuntHost;\n\n    string private answer;\n\n    // // Is voting finished? The ballot creator determines when to set this flag.\n    bool public gameHasEnded;\n\n    // The total number of votes cast so far. Revealed before voting has ended.\n    uint256 public totalGuesses;\n\n    // TODO pot\n\n    constructor(string _answer) public {\n        treasureHuntHost = msg.sender;\n        answer = _answer;\n    }\n\n    function compareStrings (string memory a, string memory b) public view \n        returns (bool) {\n        return (keccak256(abi.encodePacked((a))) == keccak256(abi.encodePacked((b))) );\n    }\n\n    function makeGuess (string myGuess) public {\n        // can only vote during voting period\n        require(!gameHasEnded);\n        // prevent overflow\n        require(totalGuesses < ~uint256(0));\n\n        // TODO add their money to the pot\n\n        if (compareStrings(myGuess, answer)) {\n            // TODO how to pay out msg.sender?\n            gameHasEnded = true;\n            return;\n        }\n        totalGuesses += 1;\n    }\n\n}\n",
  "abi": [
    {
      "constant": true,
      "inputs": [],
      "name": "gameHasEnded",
      "outputs": [
        {
          "name": "",
          "type": "bool"
        }
      ],
      "payable": false,
      "stateMutability": "view",
      "type": "function"
    },
    {
      "constant": true,
      "inputs": [],
      "name": "treasureHuntHost",
      "outputs": [
        {
          "name": "",
          "type": "address"
        }
      ],
      "payable": false,
      "stateMutability": "view",
      "type": "function"
    },
    {
      "constant": true,
      "inputs": [],
      "name": "totalGuesses",
      "outputs": [
        {
          "name": "",
          "type": "uint256"
        }
      ],
      "payable": false,
      "stateMutability": "view",
      "type": "function"
    },
    {
      "inputs": [
        {
          "name": "_answer",
          "type": "string"
        }
      ],
      "payable": false,
      "stateMutability": "nonpayable",
      "type": "constructor"
    },
    {
      "constant": true,
      "inputs": [
        {
          "name": "a",
          "type": "string"
        },
        {
          "name": "b",
          "type": "string"
        }
      ],
      "name": "compareStrings",
      "outputs": [
        {
          "name": "",
          "type": "bool"
        }
      ],
      "payable": false,
      "stateMutability": "view",
      "type": "function"
    },
    {
      "constant": false,
      "inputs": [
        {
          "name": "myGuess",
          "type": "string"
        }
      ],
      "name": "makeGuess",
      "outputs": [],
      "payable": false,
      "stateMutability": "nonpayable",
      "type": "function"
    }
  ],
  "bytecode": "0x608060405234801561001057600080fd5b506040516106be3803806106be83398101806040528101908080518201929190505050336000806101000a81548173ffffffffffffffffffffffffffffffffffffffff021916908373ffffffffffffffffffffffffffffffffffffffff1602179055508060019080519060200190610089929190610090565b5050610135565b828054600181600116156101000203166002900490600052602060002090601f016020900481019282601f106100d157805160ff19168380011785556100ff565b828001600101855582156100ff579182015b828111156100fe5782518255916020019190600101906100e3565b5b50905061010c9190610110565b5090565b61013291905b8082111561012e576000816000905550600101610116565b5090565b90565b61057a806101446000396000f30060806040526004361061006d576000357c0100000000000000000000000000000000000000000000000000000000900463ffffffff16806349270d38146100725780637f229d97146100a15780638ef28249146100f8578063bed34bba14610123578063ec7c472c146101ea575b600080fd5b34801561007e57600080fd5b50610087610253565b604051808215151515815260200191505060405180910390f35b3480156100ad57600080fd5b506100b6610266565b604051808273ffffffffffffffffffffffffffffffffffffffff1673ffffffffffffffffffffffffffffffffffffffff16815260200191505060405180910390f35b34801561010457600080fd5b5061010d61028b565b6040518082815260200191505060405180910390f35b34801561012f57600080fd5b506101d0600480360381019080803590602001908201803590602001908080601f0160208091040260200160405190810160405280939291908181526020018383808284378201915050505050509192919290803590602001908201803590602001908080601f0160208091040260200160405190810160405280939291908181526020018383808284378201915050505050509192919290505050610291565b604051808215151515815260200191505060405180910390f35b3480156101f657600080fd5b50610251600480360381019080803590602001908201803590602001908080601f0160208091040260200160405190810160405280939291908181526020018383808284378201915050505050509192919290505050610442565b005b600260009054906101000a900460ff1681565b6000809054906101000a900473ffffffffffffffffffffffffffffffffffffffff1681565b60035481565b6000816040516020018082805190602001908083835b6020831015156102cc57805182526020820191506020810190506020830392506102a7565b6001836020036101000a0380198251168184511680821785525050505050509050019150506040516020818303038152906040526040518082805190602001908083835b6020831015156103355780518252602082019150602081019050602083039250610310565b6001836020036101000a038019825116818451168082178552505050505050905001915050604051809103902060001916836040516020018082805190602001908083835b60208310151561039f578051825260208201915060208101905060208303925061037a565b6001836020036101000a0380198251168184511680821785525050505050509050019150506040516020818303038152906040526040518082805190602001908083835b60208310151561040857805182526020820191506020810190506020830392506103e3565b6001836020036101000a03801982511681845116808217855250505050505090500191505060405180910390206000191614905092915050565b600260009054906101000a900460ff1615151561045e57600080fd5b60001960035410151561047057600080fd5b6105148160018054600181600116156101000203166002900480601f01602080910402602001604051908101604052809291908181526020018280546001816001161561010002031660029004801561050a5780601f106104df5761010080835404028352916020019161050a565b820191906000526020600020905b8154815290600101906020018083116104ed57829003601f168201915b5050505050610291565b15610539576001600260006101000a81548160ff02191690831515021790555061054b565b60016003600082825401925050819055505b505600a165627a7a72305820eebecb2cb8068ec29e9ce45d913e27bd0da80f8c323f10c169cbad718bcd583d0029",
  "compiler": {
    "name": "solc",
    "version": "0.4.25+commit.59dbf8f1.Emscripten.clang"
  },
  "contractName": "SecretBallot"
}